{
    "abi": [
        {
            "type": "constructor",
            "inputs": [
                {
                    "name": "_acceptedToken",
                    "type": "address",
                    "internalType": "address"
                }
            ],
            "stateMutability": "nonpayable"
        },
        {
            "type": "function",
            "name": "acceptedToken",
            "inputs": [],
            "outputs": [
                {
                    "name": "",
                    "type": "address",
                    "internalType": "contract IERC20"
                }
            ],
            "stateMutability": "view"
        },
        {
            "type": "function",
            "name": "addDataPackage",
            "inputs": [
                {
                    "name": "_provider",
                    "type": "string",
                    "internalType": "string"
                },
                {
                    "name": "_price",
                    "type": "uint256",
                    "internalType": "uint256"
                },
                {
                    "name": "_dataAmount",
                    "type": "uint256",
                    "internalType": "uint256"
                }
            ],
            "outputs": [],
            "stateMutability": "nonpayable"
        },
        {
            "type": "function",
            "name": "cancelSubscription",
            "inputs": [],
            "outputs": [],
            "stateMutability": "nonpayable"
        },
        {
            "type": "function",
            "name": "dataPackages",
            "inputs": [
                {
                    "name": "",
                    "type": "uint256",
                    "internalType": "uint256"
                }
            ],
            "outputs": [
                {
                    "name": "id",
                    "type": "uint256",
                    "internalType": "uint256"
                },
                {
                    "name": "provider",
                    "type": "string",
                    "internalType": "string"
                },
                {
                    "name": "price",
                    "type": "uint256",
                    "internalType": "uint256"
                },
                {
                    "name": "dataAmount",
                    "type": "uint256",
                    "internalType": "uint256"
                },
                {
                    "name": "isActive",
                    "type": "bool",
                    "internalType": "bool"
                }
            ],
            "stateMutability": "view"
        },
        {
            "type": "function",
            "name": "getDataPackage",
            "inputs": [
                {
                    "name": "_packageId",
                    "type": "uint256",
                    "internalType": "uint256"
                }
            ],
            "outputs": [
                {
                    "name": "id",
                    "type": "uint256",
                    "internalType": "uint256"
                },
                {
                    "name": "provider",
                    "type": "string",
                    "internalType": "string"
                },
                {
                    "name": "price",
                    "type": "uint256",
                    "internalType": "uint256"
                },
                {
                    "name": "dataAmount",
                    "type": "uint256",
                    "internalType": "uint256"
                },
                {
                    "name": "isActive",
                    "type": "bool",
                    "internalType": "bool"
                }
            ],
            "stateMutability": "view"
        },
        {
            "type": "function",
            "name": "isSubscriptionActive",
            "inputs": [
                {
                    "name": "user",
                    "type": "address",
                    "internalType": "address"
                }
            ],
            "outputs": [
                {
                    "name": "",
                    "type": "bool",
                    "internalType": "bool"
                }
            ],
            "stateMutability": "view"
        },
        {
            "type": "function",
            "name": "isSubscriptionExpired",
            "inputs": [
                {
                    "name": "user",
                    "type": "address",
                    "internalType": "address"
                }
            ],
            "outputs": [
                {
                    "name": "",
                    "type": "bool",
                    "internalType": "bool"
                }
            ],
            "stateMutability": "view"
        },
        {
            "type": "function",
            "name": "owner",
            "inputs": [],
            "outputs": [
                {
                    "name": "",
                    "type": "address",
                    "internalType": "address"
                }
            ],
            "stateMutability": "view"
        },
        {
            "type": "function",
            "name": "packageCount",
            "inputs": [],
            "outputs": [
                {
                    "name": "",
                    "type": "uint256",
                    "internalType": "uint256"
                }
            ],
            "stateMutability": "view"
        },
        {
            "type": "function",
            "name": "renewSubscription",
            "inputs": [
                {
                    "name": "_amount",
                    "type": "uint256",
                    "internalType": "uint256"
                }
            ],
            "outputs": [],
            "stateMutability": "nonpayable"
        },
        {
            "type": "function",
            "name": "subscribe",
            "inputs": [
                {
                    "name": "_mobileNumber",
                    "type": "string",
                    "internalType": "string"
                },
                {
                    "name": "_packageId",
                    "type": "uint256",
                    "internalType": "uint256"
                },
                {
                    "name": "_amount",
                    "type": "uint256",
                    "internalType": "uint256"
                }
            ],
            "outputs": [],
            "stateMutability": "nonpayable"
        },
        {
            "type": "function",
            "name": "subscriptions",
            "inputs": [
                {
                    "name": "",
                    "type": "address",
                    "internalType": "address"
                }
            ],
            "outputs": [
                {
                    "name": "mobileNumber",
                    "type": "string",
                    "internalType": "string"
                },
                {
                    "name": "packageId",
                    "type": "uint256",
                    "internalType": "uint256"
                },
                {
                    "name": "expirationDate",
                    "type": "uint256",
                    "internalType": "uint256"
                },
                {
                    "name": "isActive",
                    "type": "bool",
                    "internalType": "bool"
                },
                {
                    "name": "provider",
                    "type": "string",
                    "internalType": "string"
                }
            ],
            "stateMutability": "view"
        },
        {
            "type": "function",
            "name": "withdrawTokens",
            "inputs": [],
            "outputs": [],
            "stateMutability": "nonpayable"
        },
        {
            "type": "event",
            "name": "DataCredited",
            "inputs": [
                {
                    "name": "user",
                    "type": "address",
                    "indexed": true,
                    "internalType": "address"
                },
                {
                    "name": "mobileNumber",
                    "type": "string",
                    "indexed": true,
                    "internalType": "string"
                },
                {
                    "name": "dataAmount",
                    "type": "uint256",
                    "indexed": true,
                    "internalType": "uint256"
                }
            ],
            "anonymous": false
        },
        {
            "type": "event",
            "name": "DataPackageAdded",
            "inputs": [
                {
                    "name": "id",
                    "type": "uint256",
                    "indexed": true,
                    "internalType": "uint256"
                },
                {
                    "name": "provider",
                    "type": "string",
                    "indexed": true,
                    "internalType": "string"
                },
                {
                    "name": "price",
                    "type": "uint256",
                    "indexed": false,
                    "internalType": "uint256"
                },
                {
                    "name": "dataAmount",
                    "type": "uint256",
                    "indexed": false,
                    "internalType": "uint256"
                }
            ],
            "anonymous": false
        },
        {
            "type": "event",
            "name": "SubscriptionCanceled",
            "inputs": [
                {
                    "name": "user",
                    "type": "address",
                    "indexed": true,
                    "internalType": "address"
                },
                {
                    "name": "packageId",
                    "type": "uint256",
                    "indexed": false,
                    "internalType": "uint256"
                }
            ],
            "anonymous": false
        },
        {
            "type": "event",
            "name": "SubscriptionCreated",
            "inputs": [
                {
                    "name": "user",
                    "type": "address",
                    "indexed": true,
                    "internalType": "address"
                },
                {
                    "name": "mobileNumber",
                    "type": "string",
                    "indexed": true,
                    "internalType": "string"
                },
                {
                    "name": "provider",
                    "type": "string",
                    "indexed": true,
                    "internalType": "string"
                },
                {
                    "name": "packageId",
                    "type": "uint256",
                    "indexed": false,
                    "internalType": "uint256"
                },
                {
                    "name": "expirationDate",
                    "type": "uint256",
                    "indexed": false,
                    "internalType": "uint256"
                }
            ],
            "anonymous": false
        },
        {
            "type": "event",
            "name": "SubscriptionRenewed",
            "inputs": [
                {
                    "name": "user",
                    "type": "address",
                    "indexed": true,
                    "internalType": "address"
                },
                {
                    "name": "packageId",
                    "type": "uint256",
                    "indexed": true,
                    "internalType": "uint256"
                },
                {
                    "name": "newExpirationDate",
                    "type": "uint256",
                    "indexed": false,
                    "internalType": "uint256"
                }
            ],
            "anonymous": false
        },
        {
            "type": "event",
            "name": "TokensWithdrawn",
            "inputs": [
                {
                    "name": "owner",
                    "type": "address",
                    "indexed": true,
                    "internalType": "address"
                },
                {
                    "name": "amount",
                    "type": "uint256",
                    "indexed": false,
                    "internalType": "uint256"
                }
            ],
            "anonymous": false
        },
        {
            "type": "error",
            "name": "ReentrancyGuardReentrantCall",
            "inputs": []
        }
    ],
    "bytecode": {
        "object": "0x608060405234801561001057600080fd5b5060405161156f38038061156f83398101604081905261002f916100bc565b60016000556001600160a01b03811661008e5760405162461bcd60e51b815260206004820152601560248201527f496e76616c696420746f6b656e20616464726573730000000000000000000000604482015260640160405180910390fd5b600580546001600160a01b039092166001600160a01b031992831617905560048054909116331790556100ec565b6000602082840312156100ce57600080fd5b81516001600160a01b03811681146100e557600080fd5b9392505050565b611474806100fb6000396000f3fe608060405234801561001057600080fd5b50600436106100cf5760003560e01c80638da5cb5b1161008c578063d71bb37b11610066578063d71bb37b146101a9578063da403ddb146101bc578063ee0ebe0c146101cf578063f046395a146101e657600080fd5b80638da5cb5b1461017057806396a5579014610183578063a94452b81461019657600080fd5b806314401329146100d457806324e9edb0146100fc5780633afb055114610106578063451c3d8014610119578063547afedc146101445780638d8f2adb14610168575b600080fd5b6100e76100e236600461103c565b61020a565b60405190151581526020015b60405180910390f35b610104610240565b005b6100e761011436600461103c565b610316565b60055461012c906001600160a01b031681565b6040516001600160a01b0390911681526020016100f3565b610157610152366004611065565b61034a565b6040516100f39594939291906110ce565b61010461046f565b60045461012c906001600160a01b031681565b61010461019136600461111c565b61063c565b6101046101a436600461111c565b610784565b6101046101b7366004611065565b610b8e565b6101576101ca366004611065565b610e10565b6101d860035481565b6040519081526020016100f3565b6101f96101f436600461103c565b610ecb565b6040516100f39594939291906111e3565b6001600160a01b0381166000908152600260205260408120600381015460ff1680156102395750428160020154115b9392505050565b336102665760405162461bcd60e51b815260040161025d90611228565b60405180910390fd5b3360009081526002602052604090206003015460ff166102c15760405162461bcd60e51b815260206004820152601660248201527527379030b1ba34bb329039bab139b1b934b83a34b7b760511b604482015260640161025d565b3360008181526002602090815260409182902060038101805460ff191690556001015491519182527f75703d723c382baf9126c0b27310a322412b9e2bbaf52e74afcf50b107a7905f910160405180910390a2565b6001600160a01b0381166000908152600260205260408120600381015460ff16801561023957506002015442101592915050565b6000818152600160205260408120805460609183918291829182036103b15760405162461bcd60e51b815260206004820152601b60248201527f44617461207061636b61676520646f6573206e6f742065786973740000000000604482015260640161025d565b80546002820154600383015460048401546001850180549093929160ff169084906103db90611258565b80601f016020809104026020016040519081016040528092919081815260200182805461040790611258565b80156104545780601f1061042957610100808354040283529160200191610454565b820191906000526020600020905b81548152906001019060200180831161043757829003601f168201915b50505050509350955095509550955095505091939590929450565b6004546001600160a01b031633146104c25760405162461bcd60e51b81526020600482015260166024820152752737ba103a34329031b7b73a3930b1ba1037bbb732b960511b604482015260640161025d565b6005546040516370a0823160e01b81523060048201526000916001600160a01b0316906370a0823190602401602060405180830381865afa15801561050b573d6000803e3d6000fd5b505050506040513d601f19601f8201168201806040525081019061052f9190611292565b9050600081116105795760405162461bcd60e51b81526020600482015260156024820152744e6f20746f6b656e7320746f20776974686472617760581b604482015260640161025d565b6005546004805460405163a9059cbb60e01b81526001600160a01b0391821692810192909252602482018490529091169063a9059cbb906044016020604051808303816000875af11580156105d2573d6000803e3d6000fd5b505050506040513d601f19601f820116820180604052508101906105f691906112ab565b506004546040518281526001600160a01b03909116907f6352c5382c4a4578e712449ca65e83cdb392d045dfcf1cad9615189db2da244b9060200160405180910390a250565b6004546001600160a01b0316331461068f5760405162461bcd60e51b81526020600482015260166024820152752737ba103a34329031b7b73a3930b1ba1037bbb732b960511b604482015260640161025d565b6003805490600061069f836112e3565b90915550506040805160a08101825260035480825260208083018781528385018790526060840186905260016080850181905260009384529182905293909120825181559251919291908201906106f6908261134a565b506040828101516002830155606083015160038301556080909201516004909101805460ff191691151591909117905551610732908490611409565b60405180910390206003547faad119b9e2cb5d8ac5d3621440a5d0d860295ae5759c060c60a5009d30c9f6758484604051610777929190918252602082015260400190565b60405180910390a3505050565b61078c611012565b336107a95760405162461bcd60e51b815260040161025d90611228565b60008281526001602052604090206004015460ff1661080a5760405162461bcd60e51b815260206004820152601a60248201527f44617461207061636b616765206973206e6f7420616374697665000000000000604482015260640161025d565b6000828152600160205260409020600201548110156108625760405162461bcd60e51b8152602060048201526014602482015273125b9cdd59999a58da595b9d081c185e5b595b9d60621b604482015260640161025d565b600a8351101580156108765750600f835111155b6108c25760405162461bcd60e51b815260206004820152601c60248201527f496e76616c6964206d6f62696c65206e756d626572206c656e67746800000000604482015260640161025d565b6005546040516323b872dd60e01b8152336004820152306024820152604481018390526001600160a01b03909116906323b872dd906064016020604051808303816000875af1158015610919573d6000803e3d6000fd5b505050506040513d601f19601f8201168201806040525081019061093d91906112ab565b6109815760405162461bcd60e51b8152602060048201526015602482015274151bdad95b881d1c985b9cd9995c8819985a5b1959605a1b604482015260640161025d565b6000828152600160208190526040822001805461099d90611258565b80601f01602080910402602001604051908101604052809291908181526020018280546109c990611258565b8015610a165780601f106109eb57610100808354040283529160200191610a16565b820191906000526020600020905b8154815290600101906020018083116109f957829003601f168201915b505050505090506040518060a001604052808581526020018481526020014262278d00610a439190611425565b81526001602080830191909152604091820184905233600090815260029091522081518190610a72908261134a565b506020820151600182015560408201516002820155606082015160038201805460ff191691151591909117905560808201516004820190610ab3908261134a565b5050604051610ac491508290611409565b604051809103902084604051610ada9190611409565b604051908190039020337f1b94df57ae3046d508095453f54f479098c53b2a0066176abaaeda3154f9967586610b134262278d00611425565b6040805192835260208301919091520160405180910390a460008381526001602052604090819020600301549051610b4c908690611409565b6040519081900381209033907f9746a1199fc818bbb8c3a7afd4a020c693cd2db1541016b008095b51330cde4690600090a450610b896001600055565b505050565b610b96611012565b33610bb35760405162461bcd60e51b815260040161025d90611228565b3360009081526002602052604090206003015460ff16610c0e5760405162461bcd60e51b815260206004820152601660248201527527379030b1ba34bb329039bab139b1b934b83a34b7b760511b604482015260640161025d565b610c1733610316565b15610c645760405162461bcd60e51b815260206004820152601760248201527f537562736372697074696f6e2069732065787069726564000000000000000000604482015260640161025d565b33600090815260026020818152604080842060019081015485529091529091200154811015610ccc5760405162461bcd60e51b8152602060048201526014602482015273125b9cdd59999a58da595b9d081c185e5b595b9d60621b604482015260640161025d565b6005546040516323b872dd60e01b8152336004820152306024820152604481018390526001600160a01b03909116906323b872dd906064016020604051808303816000875af1158015610d23573d6000803e3d6000fd5b505050506040513d601f19601f82011682018060405250810190610d4791906112ab565b610d8b5760405162461bcd60e51b8152602060048201526015602482015274151bdad95b881d1c985b9cd9995c8819985a5b1959605a1b604482015260640161025d565b336000908152600260208190526040822001805462278d009290610db0908490611425565b909155505033600081815260026020818152604092839020600181015492015492519283529092917f0844521bd3c7295df35ca72576b1c04b6061d23891276d5c077cd73cbb3d31fc910160405180910390a3610e0d6001600055565b50565b600160208190526000918252604090912080549181018054610e3190611258565b80601f0160208091040260200160405190810160405280929190818152602001828054610e5d90611258565b8015610eaa5780601f10610e7f57610100808354040283529160200191610eaa565b820191906000526020600020905b815481529060010190602001808311610e8d57829003601f168201915b50505050600283015460038401546004909401549293909290915060ff1685565b600260205260009081526040902080548190610ee690611258565b80601f0160208091040260200160405190810160405280929190818152602001828054610f1290611258565b8015610f5f5780601f10610f3457610100808354040283529160200191610f5f565b820191906000526020600020905b815481529060010190602001808311610f4257829003601f168201915b5050506001840154600285015460038601546004870180549697939692955060ff909116935090610f8f90611258565b80601f0160208091040260200160405190810160405280929190818152602001828054610fbb90611258565b80156110085780601f10610fdd57610100808354040283529160200191611008565b820191906000526020600020905b815481529060010190602001808311610feb57829003601f168201915b5050505050905085565b60026000540361103557604051633ee5aeb560e01b815260040160405180910390fd5b6002600055565b60006020828403121561104e57600080fd5b81356001600160a01b038116811461023957600080fd5b60006020828403121561107757600080fd5b5035919050565b60005b83811015611099578181015183820152602001611081565b50506000910152565b600081518084526110ba81602086016020860161107e565b601f01601f19169290920160200192915050565b85815260a0602082015260006110e760a08301876110a2565b6040830195909552506060810192909252151560809091015292915050565b634e487b7160e01b600052604160045260246000fd5b60008060006060848603121561113157600080fd5b833567ffffffffffffffff81111561114857600080fd5b8401601f8101861361115957600080fd5b803567ffffffffffffffff81111561117357611173611106565b604051601f8201601f19908116603f0116810167ffffffffffffffff811182821017156111a2576111a2611106565b6040528181528282016020018810156111ba57600080fd5b816020840160208301376000602092820183015297908601359650604090950135949350505050565b60a0815260006111f660a08301886110a2565b8660208401528560408401528415156060840152828103608084015261121c81856110a2565b98975050505050505050565b602080825260169082015275496e76616c69642063616c6c6572206164647265737360501b604082015260600190565b600181811c9082168061126c57607f821691505b60208210810361128c57634e487b7160e01b600052602260045260246000fd5b50919050565b6000602082840312156112a457600080fd5b5051919050565b6000602082840312156112bd57600080fd5b8151801515811461023957600080fd5b634e487b7160e01b600052601160045260246000fd5b6000600182016112f5576112f56112cd565b5060010190565b601f821115610b8957806000526020600020601f840160051c810160208510156113235750805b601f840160051c820191505b81811015611343576000815560010161132f565b5050505050565b815167ffffffffffffffff81111561136457611364611106565b611378816113728454611258565b846112fc565b6020601f8211600181146113ac57600083156113945750848201515b600019600385901b1c1916600184901b178455611343565b600084815260208120601f198516915b828110156113dc57878501518255602094850194600190920191016113bc565b50848210156113fa5786840151600019600387901b60f8161c191681555b50505050600190811b01905550565b6000825161141b81846020870161107e565b9190910192915050565b80820180821115611438576114386112cd565b9291505056fea264697066735822122093a42b51b6bd04420c8377282d98f08241def54ec67387709f546786ed7a8ba564736f6c634300081a0033",
        "linkReferences": {}
    },
    "methodIdentifiers": {
        "acceptedToken()": "451c3d80",
        "addDataPackage(string,uint256,uint256)": "96a55790",
        "cancelSubscription()": "24e9edb0",
        "dataPackages(uint256)": "da403ddb",
        "getDataPackage(uint256)": "547afedc",
        "isSubscriptionActive(address)": "14401329",
        "isSubscriptionExpired(address)": "3afb0551",
        "owner()": "8da5cb5b",
        "packageCount()": "ee0ebe0c",
        "renewSubscription(uint256)": "d71bb37b",
        "subscribe(string,uint256,uint256)": "a94452b8",
        "subscriptions(address)": "f046395a",
        "withdrawTokens()": "8d8f2adb"
    },
    "id": 22
}